:020000040800F2
:1000000050060020AD0100085B1E0008BD1B000863
:10001000591E000829060008692600080000000093
:100020000000000000000000000000003B2100086C
:100030003D08000800000000392100083D210008AB
:10004000C7010008C7010008C7010008C701000870
:10005000C7010008C7010008C701000841080008DF
:1000600079080008C7010008B1080008C7010008A6
:10007000C7010008C7010008C7010008C701000840
:10008000C7010008C7010008C70100080000000000
:10009000000000000000000000000000E908000867
:1000A000C7010008C7010008C7010008C701000810
:1000B000E5210008C7010008C7010008C7010008C2
:1000C000C7010008C7010008C7010008C7010008F0
:1000D000C7010008C7010008C701000800000000B0
:1000E000C7010008C7010008C701000800000000A0
:1000F000000000000000000000000000C701000830
:1001000000000000C7010008C7010008C70100087F
:1001100000000000000000000000000000000000DF
:10012000C7010008C70100088D070008C7010008C3
:10013000C7010008000000000000000000000000EF
:10014000000000000000000000000000C7010008DF
:10015000C7010008C7010008C7010008C70100085F
:10016000C7010008C70100080000000000000000EF
:10017000000000000000000000000000000000007F
:1001800000000000C701000800000000000000009F
:10019000C7010008DFF810D000F034FA004800472B
:1001A000B9270008AFF300805006002006488047BA
:1001B00006480047FEE7FEE7FEE7FEE7FEE7FEE74C
:1001C000FEE7FEE7FEE7FEE7C9210008950100080B
:1001D0002DE9F05F0546002092469B46884606467C
:1001E000814640241BE0284641464746224600F00F
:1001F0008AF953465A46C01A914110D311461846FF
:10020000224600F071F92D1A67EB01084F4622468D
:100210000120002100F068F917EB00094E41201E73
:10022000A4F10104DFDC484631462A464346BDE8D6
:10023000F09FD2B201E000F8012B491EFBD27047BB
:100240000022F6E710B513460A4604461946FFF7A2
:10025000F0FF204610BD2DE9FE4F804681EA0300E5
:10026000C00F0C46009021F0004123F00045B8EB90
:100270000200A94105D24046214690461C460B4645
:10028000024623F00040104347D0270DC7F30A0071
:10029000C3F30A510290401A019040286BDAC3F36D
:1002A000130040F4801B0098924620B10023D2EB4B
:1002B000030A63EB0B0B01985946C0F1400250460C
:1002C00000F012F906460D4650465946019A00F0D4
:1002D0002AF910EB08006141002487EA115284EAF0
:1002E000E7731A4340D0009A62B3019A012A4FEA99
:1002F000075215DC001B61EB02014FF0004202EADD
:100300000752CDE90042001C41F5801132462B46D0
:1003100000F02AF903B0BDE8F08F40462146F9E726
:10032000001B61EB0201001C41F5801300185B41CA
:100330002018A2F5001747EB030140EAD570B61963
:100340006D4111E06D084FEA360645EAC0754FEA87
:100350000752001B61EB0201001C41F580114908A6
:100360004FEA30000019514132462B4603B0BDE838
:10037000F04F00F0EAB80098012240000023D0EBD3
:10038000020263EBE073009821464FEAE074B8EB99
:10039000000061EB0401E9E783F000435BE781F0D3
:1003A000004158E72DE9FE4F81EA030404F00044C0
:1003B00021F0004100944FF0000B23F0004350EA7D
:1003C00001045ED052EA03045BD0C3F30A54C1F3C4
:1003D0000A552C44A4F2F3340194A0FB0254C1F357
:1003E000130141F48011C3F3130343F4801301FBA1
:1003F000024400FB034E840A970A44EA815447EA08
:100400008357A4FB076802958D0A05FB07854FEA11
:10041000932C04FB0C542705029D4FEA065847EA2B
:100420001637B5EB08056EEB070C870E920E47EA00
:10043000811742EA8312A7FB0201B6EB0B0164EBC2
:1004400000042B0D43EA0C335E1844EB1C50DA46D3
:100450005146E7FB0201C5F313044FEA0B3343EAAD
:1004600014534FEA0432019C43EA0603A4F10C043E
:100470000294009CCDE900B400F076F803B0BDE82A
:10048000F08F00200146F9E70EB5C10F80EAE07059
:100490000844CA07002140F233438DE80E000A46A3
:1004A0000B4600F061F803B000BD70B5C1F30A520D
:1004B00001F000450024C1F3130140F2FF3341F481
:1004C00080119A4201DA002070BD40F233439A4213
:1004D000A2F2334203DC524200F015F800E09040F3
:1004E0002C43F1D0404270BD202A04DB203A00FAB0
:1004F00002F1002070479140C2F1200320FA03F37B
:10050000194390407047202A04DB203A21FA02F078
:100510000021704721FA02F3D040C2F1200291403D
:10052000084319467047202A06DBCB17203A41FAC8
:1005300002F043EAE07306E041FA02F3D040C2F170
:100540002002914008431946704710B5141E73F1FC
:10055000000408DA401C41F1000192185B411A4383
:1005600001D120F0010010BD2DE9F04D92469B46CF
:1005700011B1B1FA81F202E0B0FA80F22032904675
:10058000FFF7B2FF04460F4640EA0A0041EA0B01BA
:1005900053465A46084313D0114653EA010019D076
:1005A000C8F140025046FFF7AEFF05460E465046E2
:1005B00059464246FFF798FF084305D0012004E062
:1005C00020463946BDE8F08D0020054346EAE07636
:1005D0002C4337430A986305E40AA0EB0800002285
:1005E000FD0A44EA47540A3002D500200146E9E7F3
:1005F000010510196941DDE9084500196941BDE8A7
:10060000F04DA2E7064C074D06E0E06840F001031C
:1006100094E8070098471034AC42F6D3FFF7BEFDCC
:10062000942A0008B42A0008FEE70000084910B523
:100630000968C863074C00224FF40061204600F0AF
:10064000BEFB20460122BDE81040110300F0B7BBFD
:10065000F000002000100240084910B50968C86386
:10066000074C0122D102204600F0A9FB0022A11470
:100670002046BDE8104000F0A2BB0000F0000020C2
:1006800000100240084910B509680864074C0022B0
:100690004FF40071204600F092FB20460122BDE895
:1006A0001040910200F08BBBF000002000100240CF
:1006B000084910B509680864074C01225102204618
:1006C00000F07DFB002221152046BDE8104000F01F
:1006D00076BB0000F000002000100240084910B571
:1006E00009684863074C01229102204600F067FB2D
:1006F0000022E1142046BDE8104000F060BB00007D
:1007000070010020000C0240084910B509684863D8
:10071000074C00224FF48061204600F050FB204639
:100720000122BDE81040D10200F049BB7001002059
:10073000000C0240084910B509688863074C012283
:100740001102204600F03BFB002261152046BDE867
:10075000104000F034BB000070010020000C02408B
:10076000084910B509688863074C00224FF480716E
:10077000204600F024FB20460122BDE81040510233
:1007800000F01DBB70010020000C0240014800F089
:10079000C9B80000F001002001681823CAB2103A5D
:1007A000B2FBF3F2054B6FF30901032A9B5CC365AF
:1007B00000D9091D8165084670470000742A0008A9
:1007C00010B5014600208B698A6A4FF0C07453B19E
:1007D000B3F5005F15D072B1012A0CD0022A0AD0FD
:1007E000032A09D104E01AB1012A06D0022A03D152
:1007F000C96AC90100D5012010BDC96AA142FAD059
:1008000010BD002AF7D0012AF2D0022AF3D0032A21
:10081000F3D010BD30B50468256825F48025256027
:10082000046863608368402B036803D099600068A4
:10083000C26030BD9A600068C16030BD7047000082
:1008400070B5022000F0E0F9094D0421284600F0BF
:10085000B1FA084C48B10421284600F0ABFA01284F
:1008600002D1A069401EA06170BDA069401CFAE7DA
:10087000000002400800002070B5042000F0C4F918
:10088000094D0821284600F095FA084C48B1082186
:10089000284600F08FFA012802D1206C401E206407
:1008A00070BD206C401CFAE70008024008000020E0
:1008B00070B5102000F0A8F9094D2021284600F05D
:1008C00079FA084C48B12021284600F073FA012833
:1008D00002D1A06E401EA06670BDA06E401CFAE75B
:1008E000000002400800002070B5402000F08CF9A4
:1008F000094D8021284600F05DFA084C48B180215E
:10090000284600F057FA012802D12069401E2061D4
:1009100070BD2069401CFAE70000024088000020FA
:10092000704700002DE9F84304464FF00009CDF868
:10093000009063484FF41651A56D0068B0FBF1F7C5
:100940002E6894F85C10082000FA01F131420FD0B3
:1009500021680A6852070BD50A6822F004020A606F
:1009600094F85C108840A860606D40F001006065FC
:1009700094F85C104FF0010808FA01F0304208D0FA
:1009800021684969090604D5A860606D40F002003D
:10099000606594F85C1004208840304208D02168DB
:1009A0000968890704D5A860606D40F0040060659F
:1009B00094F85C1010208840304218D021680968F3
:1009C000090714D5A86020680168490304D50068A8
:1009D000000308D5A16C07E00168C90503D40168CC
:1009E00021F008010160216C09B12046884794F884
:1009F0005C1020208840304231D021680968C90647
:100A00002DD5A86094F8350005282068016806D027
:100A1000490347D5006800031DD4616C1CE021F038
:100A2000160101602068416921F080014161206C5C
:100A300008B9A06C20B12068016821F008010160AC
:100A400094F85C103F208840A86084F8349084F8C3
:100A50003580216D1FE0E16B09B120468847606D4C
:100A600000282BD0606DC00714D0052084F8350015
:100A70002068016821F0010101600098401C00908D
:100A8000B84203D820680068C007F6D184F83490D3
:100A900084F83580E16C002910D001B02046BDE813
:100AA000F04308470168C905D5D4016821F0100159
:100AB000016084F8349084F83580CCE7BDE8F88391
:100AC000EC0000202DE9F041044600F07DF90646D7
:100AD0005CB1002584F83450022084F83500206889
:100AE000016821F0010101600DE00120BDE8F08105
:100AF00000F06AF9801B052805D9202060650320D5
:100B000084F83500F2E720680068C007F0D1226859
:100B1000116820480140D4E901031843D4E90336A1
:100B20003343184363691843A3691843E3691843BF
:100B3000236A18430843616A042903D1D4E90B13DB
:100B400019430843106020684069666A20F0070175
:100B500030460E43012704280CD1A06A0643E06A00
:100B600040B12046FFF72CFE20B14020606584F89C
:100B70003570BAE7206846612046FFF70DFE94F80D
:100B80005C203F2191408160656584F835700020CC
:100B9000ACE700003F8010F02DE9F0410446866D7F
:100BA00090F83400002501280DD0012084F834008D
:100BB00094F835700020012F07D084F83400022506
:100BC0002846BDE8F0810220FBE7022784F8357053
:100BD00060652046FFF71EFE94F85C103F208840B9
:100BE000B0602068016841F016010160206C20B1FE
:100BF0002068016841F0080101602068016841F047
:100C000001010160DCE77047044910B50A6802423F
:100C100002D00860FFF7F7FF10BD0000143C014050
:100C20002DE9F84F00224FF0010803254FF00F0E79
:100C30000B6808FA02F42340A34271D14E68012EDA
:100C400005D0022E03D0112E01D0122E15D18668A8
:100C5000570005FA07FC26EA0C06D1F80CC00CFA7E
:100C600007FC4CEA060CC0F808C04668A6430C799D
:100C7000C4F30014944034434460C668570005FA36
:100C800007FC8C6826EA0C06BC403443C4604C6800
:100C9000022C01D0122C13D1D40800EB8404A346FB
:100CA000D4F8209054074FEAD46A0EFA0AF629EADB
:100CB00006090E6906FA0AF646EA0906CBF820602C
:100CC00004680E7924EA0C0406F00306BE402643AD
:100CD00006604C68E40056D52E4C266846F48046E3
:100CE0002660246822F0030604F4804400942A4C11
:100CF0003444A446D4F808489607370F0EFA07F68E
:100D0000B443264EB04201D1002615E0244EB04235
:100D100001D1012610E0234EB04202D102260BE0A1
:100D200031E0214EB04201D1032605E01F4EB04212
:100D300001D1042600E00726BE402643CCF808680F
:100D40001B4E34684F689C43FF0300D51C4334603E
:100D5000174E361D34684F689C43BF0300D51C43B3
:100D60003460134E083634684F689C43FF0200D548
:100D70001C4334600E4E0C3634684F689C43BF02EF
:100D800000D51C433460521C102AFFF451AFBDE85B
:100D9000F88F00004438024000300140000002405B
:100DA0000004024000080240000C02400010024013
:100DB000003C01400069084000D0012070470AB1A2
:100DC000816170470904FBE70148806870470000B3
:100DD000E000002002488168027811448160704779
:100DE000E00000200B4810B5016841F4007101607B
:100DF000016841F480610160016841F48071016023
:100E0000032000F06FF8002000F006F800F024F84E
:100E1000002010BD003C024070B50D4D04464FF45B
:100E20007A712878B1FBF0F00A490968B1FBF0F05B
:100E300000F002FB48B9102C07D200222146501EB8
:100E400000F030F800206C6070BD012070BD000023
:100E5000E0000020EC0000200A4808B5016841F4D9
:100E600080410160006800F4804000900548001F48
:100E7000016841F080510160006800F080500090EE
:100E800008BD000044380240002809DB00F01F02C2
:100E9000012191404009800000F1E020C0F80011DC
:100EA00070470000F0B40E4B1B680C46C3F30223DE
:100EB000C3F10705042D00D90425191D072901D206
:100EC000002300E0DB1E012606FA05F1491E214041
:100ED00099409E40761E16403143F0BC01F0C5BBE0
:100EE0000CED00E0064900F0070208684FF6FF032A
:100EF000184040EA0220034A10430860704700008F
:100F00000CED00E00000FA052DE9F0470E46050063
:100F100065D0DFF81481D8F80000F7B200F00F00B8
:100F2000B04207D288F80070D8F8000000F00F0037
:100F3000B04254D128683D4C810712D5400703D5F3
:100F4000206840F4E05020602878000703D520682E
:100F500040F4604020602068A96820F0F000084359
:100F600020602878C0072DD03049686808390128EA
:100F700012D0022813D0032811D00968890700294C
:100F80002DDA216821F0030101432160FFF71CFFE6
:100F9000814641F2883A0EE009688903EFE7096863
:100FA0008901ECE7FFF710FFA0EB0901514502D9D9
:100FB0000320BDE8F0872068696800F00C00B0EB02
:100FC000810FEFD1D8F80010404601F00F01B14277
:100FD00007D90770006800F00F00B04201D001206F
:100FE000E7E72878400705D52068E96820F4E05055
:100FF000084320602878000706D52068296920F476
:10100000604040EAC100206000F038F82168084ADA
:10101000C1F30311515CC8400649086006480068E6
:10102000FFF7FAFE0020C4E7003C02400838024007
:101030007C2A0008EC000020E40000200448054958
:1010400000680968044AC1F38221515CC8407047B6
:10105000EC000020083802408C2A000804480549AA
:1010600000680968044AC1F34231515CC8407047C6
:10107000EC000020083802408C2A0008154810B502
:10108000006810F00C02144813D04110042A0FD04D
:10109000082A0ED10F4C241F2268236802F03F0259
:1010A0005B0207D52068C0F38810A0FB010106E0B1
:1010B000084610BD2168C1F38811A1FB000100237F
:1010C000FFF786F82168C1F30141491C4900B0FBD4
:1010D000F1F010BD083802400024F4002DE9F84F6B
:1010E00004006ED02078DFF83C93C007A9F1040516
:1010F0004AD009F104000168C1F38101012908D037
:101100000068C0F3810002280AD1D9F8000040022B
:1011100006D52868800337D560680028E1D033E021
:101120006068B0F5803F10D0B0F5A02F286810D0CF
:1011300020F480302860286820F4802028606068CF
:10114000A8B1FFF741FE06460DE0286840F4803064
:10115000F4E740F480202860F7E700BFFFF734FE93
:10116000801B642873D828688003F7D50CE0FFF74C
:101170002BFE064605E000BFFFF726FE801B642815
:10118000F0D828688003F7D42078DFF89C828007A5
:101190004FF0000A3ED5A348001D016811F00C0F66
:1011A00008D00068C0F3810002280BD1D9F80000F4
:1011B000400207D42868800716D5E068012800D1CE
:1011C00012E02BE1E068B8B10120C8F80000FFF799
:1011D000FBFD064605E000BFFFF7F6FD801B022879
:1011E000C0D828688007F7D52868216920F0F80062
:1011F00040EAC10028600DE0C8F800A0FFF7E4FD58
:10120000064604E0FFF7E0FD801B02281FD828688F
:101210008007F7D42078000722D5824E8348616981
:10122000703671B101210160FFF7CEFD074604E081
:10123000FFF7CAFDC01B022809D830688007F7D520
:101240000EE0C0F800A0FFF7BFFD074605E082E012
:10125000FFF7BAFDC01B02287DD830688007F7D49D
:101260002078400768D5DFF8BCB100270BF13C0BB4
:10127000DBF80000C0000BD4DBF8001041F0805117
:10128000CBF80010DBF80000012700F08050009040
:10129000674E3068C00510D4306840F4807030600C
:1012A000FFF792FD009005E0FFF78EFD0099401AD0
:1012B000022850D83068C005F6D55A4EA0686C3662
:1012C00001280FD00528306810D020F001003060D0
:1012D000306820F004003060A068B8B1FFF774FDFA
:1012E00000900FE0306840F00100F4E740F00400A7
:1012F0003060F7E7FFF768FD0099411A41F2883046
:10130000814266D830688007F4D50EE0FFF75CFDB7
:10131000009007E0FFF758FD0099411A41F288302C
:10132000814256D830688007F4D42FB1DBF8001022
:1013300021F08051CBF80010A069C8B33949091DCC
:101340000968C1F3810102294AD00228504607D01A
:10135000C8F8600000E03CE0FFF736FD04463BE0E3
:101360004746C8F86000FFF72FFD064605E000BFBE
:10137000FFF72AFD801B02282BD828688001F7D4AC
:10138000D4E907010843A16A2A4A490802EB01414E
:10139000626A41EA8211084394F82C1040EA016124
:1013A000C9F8001001203866FFF70EFD044606E07C
:1013B00036E000BFFFF708FD001B022809D82868A7
:1013C0008001F7D52CE000BFFFF7FEFC001B0228D0
:1013D00002D90320BDE8F88F28688001F4D41FE00B
:1013E0000128F7D0D9F80000E26900F480019142A9
:1013F00014D1226A00F03F0191420FD147F6C0712B
:10140000626A0140914209D1A26A00F440319142DE
:1014100004D1E16A00F07060884201D00120D9E770
:101420000020D7E70438024000004742800E4742C0
:10143000007000400000FFFF10B5401EB0F1807F3B
:1014400001D3012010BD4FF0E02460610F2160172F
:1014500001F00BF90020A06107202061002010BDE1
:101460007047704710B590F83C20012A22D0012225
:1014700080F83C20CA688C6822F4407222434C6891
:1014800022F4806222430C6822F4006222430C6939
:1014900022F4805222434C6922F400522243C9694B
:1014A000002322F480420A4301684A6480F83C30F9
:1014B000002010BD022010BD70B590F83C20012A1C
:1014C0002CD0012480F83C40022280F83D200368A3
:1014D0005A689D6822F070060A6832435A60104BC1
:1014E00002689A420ED0B2F1804F0BD00D4B9A4257
:1014F00008D00D4B9A4205D00C4B9A4202D00C4BAF
:101500009A4204D1496825F080031943916080F81C
:101510003D40002180F83C10084670BD022070BD9F
:10152000000001400004004000080040000C0040A2
:101530000040014010B5040003D094F83D0010B104
:1015400007E0012010BD002084F83C00204600F098
:101550000DF8022084F83D00211D206800F060FE97
:10156000012084F83D00002010BD000008B500688F
:10157000B0F1804F12D10A48016841F001010160C9
:101580000068002200F00100009011461C20FFF7C7
:1015900089FCBDE808401C20FFF776BC08BD0000B0
:1015A000403802400168CA6842F00102CA6000681F
:1015B000816801F00701062903D0016841F00101AB
:1015C00001600020704770B5044690F83C00012887
:1015D00017D0012584F83C50022084F83D00206893
:1015E000826822F0770222F47F42826008685028E5
:1015F00030D00DDC20284DD005DC98B310283BD12D
:1016000048E0022070BD302844D0402834D139E071
:10161000602828D0702806D0B0F5805F2CD0B0F5B7
:10162000005F29D10AE0CB68D1E90121206800F0F0
:1016300050FE2068816841F0770109E0CB68D1E96C
:101640000121206800F045FE2068816841F4804156
:10165000816011E0CA684968206800F0EFFE5021FF
:10166000206807E016E0CA684968206800F0F7FEC5
:101670006021206800F037FE84F83D50002084F897
:101680003C0070BDCA684968206800F0D7FE402160
:101690002068EFE7226801461046EBE7704770B517
:1016A0000446006801694FF00005C943890715D455
:1016B000C168C943890711D4E91E0161012020775F
:1016C000206880698007204602D0FFF7E7FF04E02A
:1016D00000F0DCF8204600F07FF9257720680169EA
:1016E000C943490717D4C168C943490713D46FF0E8
:1016F00004010161022020772068806910F4407F96
:10170000204602D0FFF7CAFF04E000F0BFF82046F1
:1017100000F062F9257720680169C943090716D4EA
:10172000C168C943090712D46FF0080101610420A0
:1017300020772068C0698007204602D0FFF7AEFFFF
:1017400004E000F0A3F8204600F046F92577206871
:101750000169C943C90617D4C168C943C90613D46E
:101760006FF010010161082020772068C06910F433
:10177000407F204602D0FFF791FF04E000F086F89A
:10178000204600F029F9257720680169C943C90777
:1017900008D1C168C943C90704D1891E0161204627
:1017A00000F038F920680169C943090609D4C16805
:1017B000C943090605D46FF0800101612046FFF797
:1017C0004FFE20680169C943490609D4C168C9436D
:1017D000490605D46FF040010161204600F01BF975
:1017E00020680169C94389060BD4C168C9438906C9
:1017F00007D46FF0200101612046BDE87040FFF77B
:1018000030BE70BD10B586B0044614216846FEF7A0
:1018100017FD2368184C002118480222A34212D158
:10182000036843F010030360006800F010000590A7
:101830004FF4C0400090CDE901210120CDE9031013
:1018400069460F4813E00F4CA34212D1036843F0DE
:1018500008030360006800F0080005904FF4405052
:101860000090CDE90121CDE9031269460648FFF752
:10187000D7F906B010BD000000000140303802402A
:101880000010024000080040000C0240704770B594
:10189000044690F83C000D4601280DD0012684F83E
:1018A0003C60022084F83D0042B1042A18D0082A86
:1018B0002AD00C2A4DD139E0022070BD206800F0FA
:1018C0001BFD2068816941F0080181612068816900
:1018D00021F004018161206881692A69114311E0C6
:1018E000206800F031FD2068816941F40061816168
:1018F0002068816921F480618161206881692A6999
:1019000041EA0221816124E0206800F049FD20685D
:10191000C16941F00801C1612068C16921F0040179
:10192000C1612068C1692A69114311E0206800F093
:1019300063FD2068C16941F40061C1612068C1692B
:1019400021F48061C1612068C1692A6941EA0221EC
:10195000C16184F83D60002084F83C0070BD10B582
:10196000040003D094F83D0010B107E0012010BD41
:10197000002084F83C00204600F00CF8022084F897
:101980003D00211D206800F04BFC012084F83D0043
:10199000002010BD08B500680C49884208D10C48E9
:1019A000016841F001010160006800F001000BE0F6
:1019B0000849884209D10648001F016841F0040126
:1019C0000160006800F00400009008BD00000140C4
:1019D00044380240000800407047000010B504463B
:1019E0000068012200F068FC09492068884203D1A0
:1019F000416C41F4004141642068816801F00701B5
:101A0000062903D0016841F001010160002010BDEA
:101A10000000014070477047704770B5040004D063
:101A200094F83900002510B106E0012070BD84F85B
:101A30003850204600F022F8242084F8390020682D
:101A4000C16821F40051C160204600F079FD206892
:101A5000016921F4904101612068416921F02A0166
:101A600041612068C16841F40051C160E5632020F4
:101A700084F8390084F83A00002070BD70B586B053
:101A8000064614216846FEF7DBFB20493068884291
:101A900039D11F480025016841F01001016000683C
:101AA00000F0100005901A481438016841F0010157
:101AB00001600068694600F0010005904FF4C060C5
:101AC00000900220CDE90105032003900720049037
:101AD0001048FFF7A5F8114C0F4820604FF0006048
:101AE000C4E901054014C4E9035080106561C4E9EC
:101AF0000650256220466562FEF7E4FF08B1FEF756
:101B00000FFF7463A66306B070BD000000100140B3
:101B1000443802400000024040640240F0010020CE
:101B2000F8B5044690F83A0020283CD1C1B3BAB3C6
:101B300094F83800012836D0012084F83800A162DA
:101B4000A2850025E563222084F83A00636B1748DC
:101B5000D863636B16481864636B1648D864606B6F
:101B6000134605650846666B216802463046091D26
:101B7000FFF712F8206801684168009184F8385036
:101B8000C16841F48071C1602068416941F0010180
:101B900041612068416941F0400141610020F8BD88
:101BA000FFE70120FBE70220F9E70000CD24000851
:101BB000092500088324000870477047FEE70000ED
:101BC0002DE9F04F87B014216846FEF739FB4948EC
:101BD0000024016841F080010160016801F080018A
:101BE0000591016841F004010160016801F0040100
:101BF0000591016841F001010160016801F00101F6
:101C00000591016841F010010160016801F01001C7
:101C10000591016841F0080101600068DFF8D8A073
:101C200000F008004FF4F057059000223946504666
:101C3000FFF7C5F8DFF8C4B04FF4706800224146E2
:101C40005846FFF7BCF82E4E0420CDE90006DFF819
:101C5000B4900125694602954846FEF7E1FF082049
:101C60008DE8310069464846FEF7DAFF5220CDE99B
:101C70000006254E694602953046FEF7D1FFA420A6
:101C80008DE8310069463046FEF7CAFF0097CDE97E
:101C90000154694650460394FEF7C2FFCDF8008018
:101CA000CDE90154694658460394FEF7B9FF002276
:101CB00011460720FFF7F6F80720FFF7E5F80022A6
:101CC00011460820FFF7EEF80820FFF7DDF80022A4
:101CD00011460A20FFF7E6F80A20FFF7D5F80022A0
:101CE00011461720FFF7DEF81720FFF7CDF807B0F1
:101CF000BDE8F08F3038024000100240000C024076
:101D000000002110000802400000024010B592B00F
:101D100000240F941C2168461094FEF791FA2021AC
:101D200007A8FEF78DFA1D481B4901601421C0E980
:101D3000011440F69F71C0E9031444618461FFF708
:101D40000EFE0F940FA915481094FFF7B5FB602005
:101D5000CDE9000402940394049405940822694692
:101D60000E480694FFF793FD0C2269460B48FFF7D7
:101D70008EFD0794089409944FF400500A94CDE91D
:101D80000B4007A905480E94FFF76CFB0348FFF7CB
:101D900039FD12B010BD000000000140F00000202D
:101DA00010B586B000241148009401940294039465
:101DB00004944FF080410594016042F2CF01C0E9E4
:101DC0000114F921C0E903148461FFF7B3FB4FF458
:101DD0008050009069460548FFF7F5FB049404A97C
:101DE00002480594FFF768FB06B010BD30010020E3
:101DF00010B58AB0002407941C2168460894FEF7A9
:101E00001FFA1448124901601421C0E9011440F678
:101E10009F71C0E903148461FFF7A1FD079407A92E
:101E20000C480894FFF748FB6020CDE900040294B9
:101E30000022694607480494FFF729FD04226946F9
:101E40000448FFF724FD0348FFF7DCFC0AB010BD8F
:101E50000008004070010020FEE7704770B52A4C72
:101E600001462DED028BA069E269801A2062A0690B
:101E7000E061206A00F04CFD04F18005081AA863B7
:101E8000606AA96B48432063A86BE96B401AE16A5A
:101E9000484300EB8000C0006063A86BFEF7F4FAD3
:101EA00041EC180BA06AFEF7EFFA9FED181B53ECFC
:101EB000112BFEF777FA53EC182BFEF773FA41EC6F
:101EC000180BA06BFEF7E0FA53EC182BFEF7C3F9E2
:101ED000FEF7EBFAA063206B616B0844A16B08442A
:101EE000E16B0844E063E06BB0F57A6F02DD40F629
:101EF0009F70E063E06B002801DC0120E063A86BC9
:101F0000E863BDEC028B70BD080000209A99999996
:101F10009999993F70B52A4C01462DED028B206CA2
:101F2000626C801AA064206C6064A06C00F0F0FC0D
:101F300004F18005081A2864E06C296C4843A06508
:101F4000286C696C401A616D484300EB8000C0004A
:101F5000E065286CFEF798FA41EC180B206DFEF74F
:101F600093FA9FED181B53EC112BFEF71BFA53EC61
:101F7000182BFEF717FA41EC180B206EFEF784FAC7
:101F800053EC182BFEF767F9FEF78FFA2066A06D69
:101F9000E16D0844216E0844616E08446066606E1D
:101FA000B0F57A6F02DD40F69F706066606E0028C3
:101FB00001DC01206066286C6864BDEC028B70BD9A
:101FC000080000209A9999999999993F70B52A4DDE
:101FD00001462DED028BA86EEA6E801A2867A86E66
:101FE000E866286F00F094FC05F18004081AA064EC
:101FF000686FA16C48432060A06CE16C401AE96FE7
:10200000484300EB8000C0006060A06CFEF73CFA23
:1020100041EC180BA86FFEF737FA9FED181B53EC35
:10202000112BFEF7BFF953EC182BFEF7BBF941EC6F
:10203000180BA068FEF728FA53EC182BFEF70BF9E3
:10204000FEF733FAA060206861680844A16808447C
:10205000E1680844E060E068B0F57A6F02DD40F6C0
:102060009F70E060E068002801DC0120E060A06C67
:10207000E064BDEC028B70BD080000209A9999992C
:102080009999993F10B5294C01462DED028B206995
:102090006269801AA06120696061A06900F038FC63
:1020A000081A2065E069216D4843A062206D616DCA
:1020B000401A616A484300EB8000C000E062206D76
:1020C000FEF7E2F941EC180B206AFEF7DDF99FED0F
:1020D000181B53EC112BFEF765F953EC182BFEF788
:1020E00061F941EC180B206BFEF7CEF953EC182B7D
:1020F000FEF7B1F8FEF7D9F92063A06AE16A084457
:10210000216B0844616B08446063606BB0F57A6FC3
:1021100002DD40F69F706063606B002801DC0120E7
:102120006063206D6065BDEC028B10BD88000020EF
:102130009A9999999999993F70477047FEF74ABEC5
:1021400030B593B030216846FEF77AF814210CA818
:10215000FEF776F81A480025016841F080510160C9
:10216000006800F0805011901648016821F4404149
:1021700041F4004101600068022400F440401190E5
:1021800001200090000401908001CDE90640082064
:1021900008904FF4A870099004200A900B906846AC
:1021A000FEF79CFF0CA90F2081E83100E0020F90A0
:1021B000109002210CA8FEF7A7FE13B030BD00005E
:1021C00040380240007000400548016841F4700149
:1021D000016003494FF000608039086070470000DB
:1021E00088ED00E010B50B48FFF759FA0A4800F0F7
:1021F00091FA0A4C2068FFF731FE2068FFF78AFE4B
:102200002068FFF7E3FE2068FFF73CFF2069401CD1
:10221000206110BD300100200000002008000020D7
:10222000F0B502681D4B1E4C9F031E4D1E4E98427A
:1022300007D0B84205D0A04203D0A84201D0B04296
:1022400004D122F0700C4A6842EA0C02984210D085
:10225000B8420ED0A0420CD0A8420AD0B04208D05A
:10226000124CA04205D0124CA04202D0114CA04208
:1022700003D122F44074CA6822434C6922F08002E0
:10228000224302608A68C2620A688262984201D16F
:102290000969016301214161F0BD000000000140B6
:1022A0000004004000080040000C004000400140D5
:1022B000004401400048014010B501F01F03012116
:1022C000046A99408C430462016A9A401143016296
:1022D00010BD10B5846842EA032224F47F440A4307
:1022E0002243826010BD826822F070020A4342F0ED
:1022F000070181607047000030B5026A22F00102D8
:102300000262026A4368846924F073050C682C43F6
:1023100022F002058A682A430A4DA8420BD122F016
:102320000805CA6823F440732A434D6922F0040269
:102330001D438B692B43436084614968416302629A
:1023400030BD00000000014030B5026A22F01002EA
:102350000262026A436884690D6824F4E64444EA30
:1023600005248D6822F0200242EA05120B4DA84296
:102370000ED1CD6822F0800242EA05124D6923F4A5
:10238000406343EA85038D6922F0400243EA8503F6
:102390004360846149688163026230BD000001408E
:1023A00030B5026A22F480720262036A4268C4692C
:1023B00023F4007324F073050C682C438D6843EA02
:1023C00005230C4DA8420ED1CD6823F4006343EAE7
:1023D00005234D6922F4405242EA05128D6923F427
:1023E000806342EA05124260C4614968C1630362C6
:1023F00030BD00000000014030B5026A22F4805276
:102400000262046A4268C3690D6823F4E64343EA42
:1024100005238D6824F4005444EA0534064DA8428F
:1024200004D14D6922F4804242EA85124260C361C0
:1024300049680164046230BD0000014010B5036AC0
:10244000046A24F001040462846924F0F00444EA7C
:10245000021423F00A020A438461026210BD10B51F
:10246000036A23F0100303628369046A23F4704350
:1024700043EA023224F0A00343EA011182610162BF
:1024800010BD70B5846B2068406994F83910C0F3B2
:10249000C0100025212904D118B1E584204600F0A0
:1024A00046F82068406994F83A10C0F38010222959
:1024B00004D118B1E585204600F02BF8E06B40F020
:1024C0001000E0632046FFF7A7FA70BD10B5014683
:1024D000806B09680968C90513D40021C1850168AA
:1024E000CA6822F48072CA6001684A6922F0010257
:1024F0004A6101684A6922F040024A61202180F85D
:102500003A10FFF759FB10BD10B5806BFFF755FB74
:1025100010BD0168CA6822F49072CA6001684A69F5
:1025200022F001024A61202180F83A1070470168C8
:10253000CA6822F0C002CA60202180F839107047B2
:102540002DE9F041044600680169E26821F4405138
:10255000114301612169A068E2690843616911437F
:1025600008432168CA6849F20C639A430243CA606F
:1025700020684169A26921F4407111434161E06919
:10258000192764253226B0F5004F354A35492068B1
:102590004FF0000806D0884201D0904236D1FEF7B5
:1025A0005DFD35E0884201D0904202D1FEF756FD34
:1025B00001E0FEF743FD61684A18A0FB070148EB04
:1025C0000803FDF705FE0146B0FBF5F00201B1FB83
:1025D000F5F06FF01803584301EB800006EBC000E4
:1025E000B0FBF5F000F0F80002EB4002B1FBF5F0B3
:1025F000584301EB800006EBC000B0FBF5F000F0A3
:102600000700216810448860BDE8F081FEF716FDE0
:1026100061688B0F8A00A0FB0701FDF7D9FD014619
:10262000B0FBF5F06FF01802504301EB800006EBB1
:102630000010B0FBF5F000F0F002B1FBF5F002EB9A
:102640000012B1FBF5F06FF01803584301EB800066
:1026500006EB0010B0FBF5F000F00F00D1E7000032
:102660000014014000100140FEE70907090E002890
:1026700004DB00F1E02080F80014704700F00F0048
:1026800000F1E02080F8141D704702E008C8121F16
:1026900008C1002AFAD170477047002001E001C14B
:1026A000121F002AFBD170472DE9F0410122174D7E
:1026B000D40221462846FEF782FB01221103284658
:1026C000FEF77DFB0122560231462846FEF777FBD6
:1026D0000122970239462846FEF771FB0C4D012274
:1026E00039462846FEF76BFB012221462846FEF7B5
:1026F00066FB012211022846FEF761FB314628469F
:10270000BDE8F0410122FEF75ABB00000010024074
:10271000000C024010B502784178303A02EB820298
:10272000303901EB420215490A608478C378303CA5
:10273000027904EB8404303B03EB440303EB830393
:10274000303A02EB43034B618478C378303C04EBAE
:102750008404303B03EB44034B60437902EB820279
:10276000303B03EB42028A60C2798079303800EB5B
:102770008000303A02EB4000C86010BD0800002025
:10278000094810B50068FDF751FF08480068FDF7DB
:10279000D1FF07480068FDF775FF06480068BDE8EF
:1027A0001040FDF79BBF000044000020BC0000204B
:1027B0006C0000209400002008B5FEF713FBFFF723
:1027C000BFFCFFF7FDF924480024016841F48001B3
:1027D00001600068224600F48000009021463A2003
:1027E000FEF760FB3A20FEF74FFBFFF78FFAFFF78B
:1027F000FFFA1B48194901604FF4E131C0E90114A7
:102800000C21C460C0E904418461C461FFF705F98B
:10281000FFF7C6FA12480821C038FFF7DFF8104862
:102820000C21C038FFF7DAF80D4800214038FFF7D7
:10283000D5F80B4804214038FFF7D0F80848803815
:10284000FEF7B0FE062207490548FFF769F900BF09
:1028500000F0EEF8FCE700003038024000100140C4
:10286000B001002000000020094810B50068FDF705
:10287000F3FE08480068FDF747FF07480068FDF7CA
:1028800001FF06480068BDE81040FDF753BF000097
:1028900044000020940000206C000020BC000020B8
:1028A000094810B50068FDF7C1FE08480068FDF74B
:1028B00015FF07480068FDF7FBFE06480068BDE805
:1028C0001040FDF74DBF00004400002094000020A0
:1028D0006C000020BC000020094810B50068FDF71E
:1028E000BBFE08480068FDF73BFF07480068FDF79E
:1028F000DFFE06480068BDE81040FDF705BF000098
:1029000044000020BC0000206C0000209400002047
:10291000002800DA4042704770B510480068FDF7A3
:102920009BFE0F480068FDF7EFFE01220D4D54029B
:1029300021462846FEF743FA012291022846FEF777
:102940003EFA094D012211022846FEF738FA2146C7
:102950002846BDE870400122FEF731BA440000204D
:102960009400002000100240000C024070B5104896
:102970000068FDF79DFE0F480068FDF7F1FE01229B
:102980000D4DD40221462846FEF719FA0122110303
:102990002846FEF714FA094D012291022846FEF757
:1029A0000EFA21462846BDE870400122FEF707BA1C
:1029B0006C000020BC00002000100240000C02400F
:1029C000094810B50068FDF747FE08480068FDF7A4
:1029D0006FFE07480068FDF781FE06480068BDE805
:1029E0001040FDF7A7BE0000440000206C0000204E
:1029F00094000020BC000020094810B50068FDF7D5
:102A000015FE08480068FDF73DFE07480068FDF721
:102A10007BFE06480068BDE81040FDF7A1BE00003F
:102A2000440000206C00002094000020BC00002026
:102A30000F4840793038092818D2DFE800F0050740
:102A4000090B0D0F11131500FFF746BFFFF798BED6
:102A5000FFF726BFFFF708BFFFF726BEFFF75CBFF3
:102A6000FFF784BFFFF7C8BFFFF7AABF704700009A
:102A700000000020000610160006101600000000DE
:102A8000000000000102030406070809000000001E
:102A900001020304B42A000800000020F000000036
:102AA0008A260008A42B0008F00000206005000022
:102AB0009A2600083030303030300000000000002E
:102AC0000000000000000000000000000000000006
:102AD00000000000000000000000000000000000F6
:102AE0000B000000020000000500000000000000D4
:102AF00000000000000000000000000000000000D6
:102B000000000000000000000A00000000000000BB
:102B100005000000000000000000000000000000B0
:102B200000000000000000000000000000000000A5
:102B30000B00000001000000040000000000000085
:102B40000000000000000000000000000000000085
:102B500000000000000000000B0000000100000069
:102B60000500000000000000000000000000000060
:102B70000000000000000000000000000000000055
:102B80000000000000000000000000000000000045
:102B90000000000001000000100000000000000024
:042BA0000024F40019
:040000050800019559
:00000001FF
